:020000040800F2
:10000000F0340120E10200082F0500082705000850
:100010002B05000821050008B707000800000000B4
:10002000000000000000000000000000290200089D
:1000300025050008000000007D02000859060008A0
:10004000FB020008FB020008FB020008FB0200089C
:10005000FB020008FB020008FB020008FB0200088C
:10006000FB020008FB020008FB020008FB0200087C
:10007000FB020008FB020008FB020008FB0200086C
:10008000FB020008FB020008FB020008FB0200085C
:10009000FB020008FB020008FB020008FB0200084C
:1000A000FB020008FB020008FB020008FB0200083C
:1000B000FB020008FB020008FB020008FB0200082C
:1000C000FB020008FB020008FB020008FB0200081C
:1000D000FB020008D1060008FB020008FB02000832
:1000E000FB020008FB020008FB020008FB020008FC
:1000F000FB020008FB020008FB020008FB020008EC
:10010000FB020008FB020008FB020008FB020008DB
:10011000FB020008FB020008FB020008FB020008CB
:10012000FB020008FB020008FB020008FB020008BB
:10013000FB020008FB020008FB020008FB020008AB
:10014000FB020008FB020008FB020008FB0200089B
:10015000FB020008FB020008FB020008FB0200088B
:10016000FB020008FB020008FB020008FB0200087B
:10017000FB020008FB020008FB020008FB0200086B
:10018000FB020008FB02000800F002F800F03CF857
:100190000AA090E8000C82448344AAF10107DA45E2
:1001A00001D100F031F8AFF2090EBAE80F0013F0F8
:1001B000010F18BFFB1A43F0010318477024000019
:1001C00090240000103A24BF78C878C1FAD85207AA
:1001D00024BF30C830C144BF04680C6070470000C1
:1001E0000023002400250026103A28BF78C1FBD840
:1001F000520728BF30C148BF0B6070471FB502F0DF
:100200000FFA1FBD10B510BD00F057F91146FFF7EA
:10021000F5FF00F0F7FA00F075F903B4FFF7F2FF0D
:1002200003BC00F0CAFA00002A4B19680868B0E85D
:10023000F04F80F30988BFF36F8F4FF0000080F319
:10024000118870470000000006480068006880F3CD
:10025000088862B661B6BFF34F8FBFF36F8F00DFC0
:1002600000BF00BF08ED00E0DFF80C00016841F4BA
:1002700070010160704700BF88ED00E0EFF3098076
:10028000BFF36F8F134B1A681EF0100F08BF20EDDD
:10029000108A20E9F04F106008B44FF0500080F34E
:1002A0001188BFF34F8FBFF36F8F01F041FB4FF009
:1002B000000080F3118808BC19680868B0E8F04FA6
:1002C0001EF0100F08BFB0EC108A80F30988BFF34E
:1002D0006F8F704704000020EFF305807047000027
:1002E0000948804709480047FEE7FEE7FEE7FEE7CA
:1002F000FEE7FEE7FEE7FEE7FEE7FEE70448054906
:10030000054A064B7047000069060008890100088D
:10031000F02E0120F0340120F0300120F0300120D7
:100320007047032A40F2308010F0030C00F0158073
:1003300011F8013BBCF1020F624498BF11F801CBE8
:1003400000F8013B38BF11F8013BA2F1040298BF4D
:1003500000F801CB38BF00F8013B11F0030300F0B7
:100360003180083AC0F0088051F8043B083A51F84F
:1003700004CBA0E80810F5E7121D5CBF51F8043B60
:1003800040F8043BAFF30080D20724BF11F8013BD3
:1003900011F801CB48BF11F8012B24BF00F8013B35
:1003A00000F801CB48BF00F8012B704702F0FF03B3
:1003B00043EA032242EA024200F038B8704770472D
:1003C0007047704710B5203AC0F00B80B1E8185064
:1003D000203AA0E81850B1E81850A0E81850BFF42F
:1003E000F5AF5FEA027C24BFB1E81850A0E81850CE
:1003F00044BF18C918C0BDE810405FEA827C24BF22
:1004000051F8043B40F8043B08BF7047D20728BFAF
:1004100031F8023B48BF11F8012B28BF20F8023BFE
:1004200048BF00F8012B70474FF000020429C0F0CC
:10043000128010F0030C00F01B80CCF1040CBCF116
:10044000020F18BF00F8012BA8BF20F8022BA1EB68
:100450000C0100F00DB85FEAC17C24BF00F8012B4D
:1004600000F8012B48BF00F8012B70474FF0000245
:1004700000B5134694469646203922BFA0E80C509A
:10048000A0E80C50B1F12001BFF4F7AF090728BF75
:10049000A0E80C5048BF0CC05DF804EB890028BFF1
:1004A00040F8042B08BF704748BF20F8022B11F01A
:1004B000804F18BF00F8012B7047754600F02CF8EC
:1004C000AE4605006946534620F00700854618B041
:1004D00020B5FFF713FFBDE820404FF000064FF0B6
:1004E00000074FF000084FF0000B21F00701AC4669
:1004F000ACE8C009ACE8C009ACE8C009ACE8C00988
:100500008D46704710B50446AFF300802046BDE825
:100510001040FFF782BE000000487047902E012077
:1005200000BFFEE7704700BFFEE700BFFEE7704771
:1005300002490143024A1160704700000000FA05B9
:100540000CED00E00CB500200190009034480068EC
:1005500040F480303249086000BF3148006800F440
:10056000003000900198401C0190009818B9019843
:10057000B0F5A04FF1D12A48006800F4003010B166
:100580000120009001E0002000900098012846D151
:1005900023484030006840F08050214940310860D5
:1005A0002048006840F440401E4908601C4808305C
:1005B00000681B49083108600846006840F40040A4
:1005C00008600846006840F4A05008601648091FFB
:1005D0000860081F006840F08070091F086000BFB5
:1005E0000F48006800F000700028F9D040F2057054
:1005F0000E4908600A480830006820F003000849E6
:10060000083108600846006840F00200086000BF3A
:1006100003480830006800F00C000828F8D10CBD31
:100620000038024000700040195A4007003C024068
:10063000042808D14FF0E021096941F004014FF08E
:10064000E022116107E04FF0E021096921F0040187
:100650004FF0E0221161704710B501F087FD0128CD
:1006600001D001F049FA10BD10B51548006840F4FA
:100670007000134908601348006840F001001149F8
:10068000086000200F49083108600E4800680E49D4
:1006900008400C4908600D48091D0860081F0068E3
:1006A00020F48020091F0860002006490C310860F2
:1006B000FFF748FF4FF0006001498039086010BD26
:1006C00088ED00E000380240FFFFF6FE1030002405
:1006D00010B540F225511D4800F03EF810B31B48FC
:1006E00000F064F8C4B21A48008800F40040C8B9A9
:1006F0001748008800F4804060B10A2C03D0002025
:100700001349088020E01248008840F40040104956
:10071000088019E00D2C06D10D48008840F4804077
:100720000B49088010E00A480088C0F30D00094911
:100730000C5407480088401C05490880084600887A
:10074000C72801DD0020088010BD00000010014016
:1007500094000020C82D012070B50246002400231B
:100760000025002040F66A16B14200D100BFC1F357
:10077000421501F01F03012606FA03F3012D02D1F1
:100780009689334006E0022D02D1168A334001E0FB
:10079000968A33400C12012606FA04F41688344077
:1007A00013B10CB1012000E0002070BD0146888823
:1007B000C0F30800704700BFFEE700BF70470000AD
:1007C00070B504460420FFF733FF0C48047025463B
:1007D0004FF47A7045430120094908804FF0E0202A
:1007E000006940F002004FF0E021086108464561D1
:1007F000006940F00100086170BD00008C0000201D
:100800008E0000201CB5A820FFF7DAFF4FF44070DF
:10081000FFF78EFE0648012100234A02CDE90010B1
:1008200004A1074801F072FC01F030F800201CBD63
:100830000000002073746172745F7461736B000058
:10084000511300082DE9F04105460E461C48076883
:100850001C480068001D00F089FD50B91948006867
:1008600090F82C10012088401749096881431648E8
:100870000160681C38B936B112480168091D134877
:1008800000F0B2FD1AE07C190E4800684460BC42DA
:1008900007D20C480168091D0D48006800F08AFD68
:1008A0000CE008480168091D0A48006800F082FD54
:1008B00009480068844201D207480460BDE8F0811D
:1008C00018000020040000201C0000208C010020E3
:1008D0000C000020080000203400002010B5044661
:1008E00000F08EFD24480068401C2349086023481E
:1008F000006840B9214804600846006801280DD10D
:1009000000F0DEF90AE01E48006838B91B480068AC
:10091000C06AE16A884201D8184804601948006832
:10092000401C1849086008460068206494F82C10A0
:100930000120884014490968084313490860E16AA6
:1009400001EB8101114A02EB8100211D00F04CFDF9
:1009500000F080FD0A48006868B108480068C06A75
:10096000E16A884207D24FF0805009490860BFF31E
:100970004F8FBFF36F8F10BD1400002004000020C4
:1009800020000020300000201C000020D8000020A3
:1009900004ED00E010B500F033FD10480068D0B958
:1009A0000F4800F0F7FC0F4800F0F4FC0C480E492B
:1009B00008600C480D49086000220C210A2001F053
:1009C000B5F8064908600846006820B108A1034848
:1009D000006800F0F3FD00F03DFD10BD4800002070
:1009E000A0010020B40100204000002044000020AD
:1009F000546D72510000000070B523E000F090FFCC
:100A00001348006808B9012000E00020054601F005
:100A100017FDBDB900F0F4FC0D48C068C468201D86
:100A200000F0A4FC0B480068401E0A4908600A4810
:100A30000068401E0849086000F00CFD204600F0E8
:100A400060F800BF044800680028D7D170BD0000DE
:100A500078010020140000201000002070B504462A
:100A60000D46206C70B1216CE0680844E06061685C
:100A7000E068884201D32068E0602846226CE16883
:100A8000FFF74FFC70BD2DE9F04104460F461546B7
:100A90004FF00008A66B206C40B9206860BB60680E
:100AA00001F01EFC80460020606025E07DB93946DB
:100AB000226CA068FFF735FC216CA0680844A06098
:100AC000D4E90110884217D32068A06014E03946A9
:100AD000226CE068FFF725FC216CE068401AE060BA
:100AE0002168E068884203D2216C6068401AE060A7
:100AF000022D01D106B1761E701CA0634046BDE8F0
:100B0000F08110B50446206B00F0C2FC204600F0D6
:100B1000BFFC10BD0146084A126812680AB90122DA
:100B200000E000220A600A6822B9034A1268D2680B
:100B3000106800E0002070474000002030B54FF4FE
:100B40009633174800F007042CB1C01D20F00700B1
:100B5000134C041B1B1B0246124C22600024114D37
:100B60006C60D018083820F007000F4C206000247B
:100B70000D4D2D686C600C4D2D682C601146441A8B
:100B80004C60094C24680C60084D4C682C60084D82
:100B90004C682C604FF00044064D2C6030BD0000C6
:100BA000C8010020740000207C0000208400002088
:100BB000800000208800002000BFFFF71DFF0648CE
:100BC00000680128F9D94FF0805004490860BFF34C
:100BD0004F8FBFF36F8FF0E7D800002004ED00E0E7
:100BE0002DE9F04106460D4617469846069C0DB97C
:100BF000246000E02760E66325640121204601F0BF
:100C0000A3F884F84C80BDE8F0812DE9F05F8246BE
:100C10000F4690469B460A9E0C9C4FEA8801A522EF
:100C2000206BFFF7C3FBA8F10100216B01EB8009EA
:100C300029F0070909F0070008B9012000E00020A9
:100C400050B900BF502080F31188BFF34F8FBFF31E
:100C50006F8F00BF00BFFEE7002507E0795D04F15C
:100C600034004155785D00B902E06D1C0A2DF5D3C2
:100C700000BF00213D200155052E00D30426E66269
:100C8000A6640020E064201D00F091FB04F1180030
:100C900000F08DFB2461C6F10500A06164620020B4
:100CA000206584F854005A465146484600F03AFB05
:100CB00020600B9808B10B980460BDE8F09F00001D
:100CC00010B5002407E004EB84010F4A02EB810019
:100CD00000F060FB641C052CF5D30C4800F05AFBB7
:100CE0000B4800F057FB0B4800F054FB0A4800F09B
:100CF00051FB0A4800F04EFB0448094908600448CB
:100D00000849086010BD0000D80000203C01002008
:100D10005001002064010020780100208C01002097
:100D2000080000200C00002010B50146164800E025
:100D3000006803688B42FBD30246436813448B422E
:100D400004D143684C682344436001460A464B681B
:100D500013440468A34211D10C4C03682468A342D5
:100D600008D04B680468646823444B6003681B68C0
:100D70000B6005E0054B1B680B6001E003680B602E
:100D8000884200D0016010BD740000207C0000206B
:100D90002DE9F04104460D4616461F464FF0000867
:100DA00065602461B5420CD8F01BA169884202D36A
:100DB0004FF0010811E0211D0948006800F0FAFA1F
:100DC0000BE0BE4204D2BD4202D34FF0010804E062
:100DD000211D0448006800F0EDFA4046BDE8F081AE
:100DE000440000204000002070B5054600F008FBDC
:100DF000A86B08B9012400E0002400F02BFB20467A
:100E000070BD70B5054600F0FBFAA86BE96B88422F
:100E100001D1012400E0002400F01CFB204670BD3D
:100E2000F8B505460F4616480068C068C468201D1E
:100E300000F09CFAE06901281DD1A06941192B46F8
:100E40003A462046FFF7A4FFA8B1002003462A46F1
:100E500001460090204601F0A1FB064656B900BFAE
:100E6000502080F31188BFF34F8FBFF36F8F00BF07
:100E700000BFFEE700BF2046616A8847F8BD00005A
:100E80004000002070B586B06AE00398002867DB58
:100E9000059C606908B9012000E0002010B9201D00
:100EA00000F064FA02A800F0BDF8054603980A288D
:100EB00054D2DFE800F009050731334F0608323419
:100EC00000BF00BF00BF00BF0498A269811803469D
:100ED0002A462046FFF75CFFE8B12046616A884752
:100EE000E069012817D1002000900498A1694218F8
:100EF00000231946204601F051FB064656B900BFB3
:100F0000502080F31188BFF34F8FBFF36F8F00BF66
:100F100000BFFEE700BF22E000BF20E000BF049852
:100F2000A061A06908B1012000E0002050B900BF15
:100F3000502080F31188BFF34F8FBFF36F8F00BF36
:100F400000BFFEE7A06941192B462A462046FFF75D
:100F50001FFF04E0204600F09BFA00E000BF00BF46
:100F600000231A4603A90448006800F00BFE00287D
:100F70008BD106B070BD000048000020F8B50546D2
:100F80000C4600F0CDFC684600F04CF80646009890
:100F900020BB44B9B54206D801F052FA3146284682
:100FA000FFF73EFF1CE03CB10E480068006808B93E
:100FB000012000E000200446A91B22460A480068E0
:100FC00000F012FB01F03CFA50B94FF08050074995
:100FD0000860BFF34F8FBFF36F8F01E001F030FA6D
:100FE000F8BD0000440000204800002004ED00E0AF
:100FF0000A490968096809B9012100E0002121B105
:101000004FF0FF31064A116006E004490968C968DB
:10101000C868034A4168116070470000080000205A
:101020003400002070B5044601F0B0F805460748CA
:101030000068854204D200F00BF80120206001E036
:101040000020206001480560284670BD5000002047
:101050002DE9F84332E024480068C068056822485A
:101060000068C068C468201D00F080F92046616AED
:101070008847E069012821D1A0694619AE4207D905
:1010800066602461211D1848006800F093F915E09E
:10109000002003462A4601460090204601F07EFAD1
:1010A000074657B900BF502080F31188BFF34F8F18
:1010B000BFF36F8F00BF00BFFEE700BF0A480068A4
:1010C000006808B9012000E000200028C3D00648CD
:1010D000D0F8008005480068034908600348C0F85C
:1010E0000080BDE8F883000040000020440000209C
:1010F0000E480068401C08B9012000E0002050B9EB
:1011000000BF502080F31188BFF34F8FBFF36F8F64
:1011100000BF00BFFEE700BF502080F31188BFF37F
:101120004F8FBFF36F8F00BF00BFFEE76800002046
:1011300008B500BF6846FFF7EDFC0446204600995D
:10114000FFF71CFFFFF79EFEF4E770B5044600F0C2
:1011500057F994F9455010E0606A08B9012000E0A1
:10116000002038B904F1240001F01EF918B100F094
:10117000DBFA00E003E0681E45B2002DECDC00BFA6
:10118000FF2084F8450000F065F900F039F994F982
:10119000445010E0206908B9012000E0002048B95F
:1011A00004F1100001F000F908B100F0BDFA681E6A
:1011B00045B200E001E0002DECDC00BFFF2084F828
:1011C000440000F047F970BD2DE9F04104464FF0AE
:1011D000000800F0A5FB4648006808B9FFF7AEFC20
:1011E00044480068204000286BD1D4B1083404F092
:1011F0000700B0B104F00700C0F10800044404F097
:10120000070008B9012000E0002050B900BF5020BD
:1012100080F31188BFF34F8FBFF36F8F00BF00BF04
:10122000FEE7002C4DD034480068844249D8334E44
:101230003046056801E02E462D686868A04202D25B
:1012400028680028F7D12A480068854239D03068DC
:1012500000F10808286830606868001B102819D958
:101260002F1907F0070008B9012000E0002050B94D
:1012700000BF502080F31188BFF34F8FBFF36F8FF3
:1012800000BF00BFFEE76868001B78606C603846EE
:10129000FFF74AFD184968680968081A1649086086
:1012A0000846006816490968884203D21248006857
:1012B000134908600F49686809680843686000209E
:1012C000286001F0BDF808F0070008B9012000E02F
:1012D000002050B900BF502080F31188BFF34F8F1A
:1012E000BFF36F8F00BF00BFFEE74046BDE8F0814F
:1012F0007C00002088000020800000207400002076
:10130000840000200648006830B10549096801F1F1
:101310004C00C96C491C016001480068704700001E
:1013200004000020001F4FF080730360001F21F0B5
:1013300001030360001F054B036014380260001FA7
:101340006FF002030360203870470000F1100008BE
:1013500010B5044600F054F80348006800F06AF93C
:1013600000F078F810BD00000000002001460A6976
:10137000D1E901309860D1E9010358605068884292
:1013800001D188685060002008611068401E10601C
:101390001068704700F1080141604FF0FF31816033
:1013A00000F10801C1600161002101607047002166
:1013B0000161704710B502460B685C1C0CB91069DE
:1013C00007E002F1080000E04068446824689C429D
:1013D000FAD944684C604C68A160886041600A6139
:1013E0001468641C146010BD42684A6093688B6086
:1013F000936859609160086103685B1C03607047E3
:1014000000BF502080F31188BFF34F8FBFF36F8F61
:1014100000BF0E480068401C0C4908600846006880
:10142000012812D10A480068C0B208B9012000E0C2
:10143000002050B900BF502080F31188BFF34F8FB8
:10144000BFF36F8F00BF00BFFEE77047680000204A
:1014500004ED00E00D48006850B900BF502080F353
:101460001188BFF34F8FBFF36F8F00BF00BFFEE740
:1014700006480068401E054908600846006820B913
:10148000002080F3118800BF00BF70476800002073
:1014900070B506463546002E3FD0083D2C461F4904
:1014A00060680968084008B1012000E0002050B9D8
:1014B00000BF502080F31188BFF34F8FBFF36F8FB1
:1014C00000BF00BFFEE7206808B9012000E000204F
:1014D00050B900BF502080F31188BFF34F8FBFF386
:1014E0006F8F00BF00BFFEE70C49606809680840C5
:1014F00098B1206888B909496068096888436060C4
:1015000000F00EFA0649606809680844044908605A
:101510002046FFF709FC00F093FF70BD8800002013
:1015200080000020064800684FF47A71B0FBF1F0AB
:10153000401E4FF0E021486107200861704700001D
:101540005400002070B5FEF7C7FE0446102C16D3D9
:1015500004F1E02090F8F05315480078854201DB53
:10156000012000E0002050B900BF502080F3118816
:10157000BFF34F8FBFF36F8F00BF00BFFEE70D4873
:10158000006800F4E0600C490968884201D8012035
:1015900000E0002050B900BF502080F31188BFF355
:1015A0004F8FBFF36F8F00BF00BFFEE770BD00001D
:1015B0006C0000200CED00E07000002002460020CE
:1015C0000BE0084B53F8303033B9064B43F830107A
:1015D00003EBC0035A6002E0401C0828F1D300BFAF
:1015E00070470000980000202DE9F04105460E46A6
:1015F00017462C46FFF704FF94F94400401C10B92D
:10160000002084F8440094F94500401C10B90020E3
:1016100084F84500FFF71EFFA06B28B93A46314613
:1016200004F1240000F0A2F82046FFF78EFDBDE88B
:10163000F081000070B50546FFF7E2FE15B93048AD
:10164000006800E028460446201DFFF78FFE78B9A9
:10165000E06A00EB80002B4951F8200040B994F873
:101660002C100120884028490968814326480160E0
:10167000A06A18B104F11800FFF778FE234800684B
:10168000401C224908601E480068844209D1211D7F
:101690001F48FFF7A9FE1F480068401C1D4908604D
:1016A00009E01D480068401E1B4908602046FFF7FE
:1016B00028FAFFF79DFCFFF7CDFE18480068E8B157
:1016C0000F480068844219D11548006808B9012004
:1016D00000E0002050B900BF502080F31188BFF314
:1016E0004F8FBFF36F8F00BF00BFFEE74FF08050FA
:1016F0000C490860BFF34F8FBFF36F8F70BD0000C0
:1017000004000020D80000201C0000203000002031
:10171000780100201000002014000020200000208C
:101720003C00002004ED00E0012001490860704702
:101730002800002070B504460D4654B900BF502063
:1017400080F31188BFF34F8FBFF36F8F00BF00BFCF
:10175000FEE70548016818312046FFF72BFE0121FE
:101760002846FFF76FF870BD0400002070B50546ED
:101770000E46144655B900BF502080F31188BFF3C0
:101780004F8FBFF36F8F00BF00BFFEE706480168B1
:1017900018312846FFF728FE0CB14FF0FF362146DE
:1017A0003046FFF74FF870BD0400002070B50546C5
:1017B0002C46002D4BD02649E06A0968C96A884248
:1017C00045D2A06900F0004028B921480068C06AED
:1017D000C0F10500A061E16A01EB81011D4A02EB45
:1017E00081016069884201D1012000E0002050B3EE
:1017F000201DFFF7BBFD78B9E06A00EB80001549BA
:1018000051F8200040B994F82C100120884012496A
:1018100009688143104801600D480068C06AE062B1
:1018200094F82C10012088400B49096808430A49A4
:101830000860E16A01EB8101064A02EB8100211D8B
:10184000FFF7D2FD03E002480068C06AE06270BDA5
:1018500004000020D80000201C00002050B900BF68
:10186000502181F31188BFF34F8FBFF36F8F00BFFB
:1018700000BFFEE703490968016003490968416048
:10188000704700002C000020180000201CB51D48E7
:1018900000210B468222CDE900101BA11C4800F05C
:1018A00035FC0446012C02D100F04CFE0446012C0C
:1018B00015D100BF502080F31188BFF34F8FBFF3C5
:1018C0006F8F00BF4FF0FF301249086001201249AE
:1018D000086000201149086000F070F810E0601CFA
:1018E00008B1012000E0002050B900BF502080F373
:1018F0001188BFF34F8FBFF36F8F00BF00BFFEE7AC
:101900001CBD00003800002049444C450000000088
:10191000B90B00083400002020000020180000202F
:1019200002480068401C0149086070473C000020E4
:101930001D48006818B101201C49086032E00020F1
:101940001A4908601A480068B0FA80F0C0F11F0117
:1019500001EB8100174A52F8200008B1012000E095
:10196000002050B900BF502080F31188BFF34F8F83
:10197000BFF36F8F00BF00BFFEE701EB81020D4B8D
:1019800003EB820042685268426000F1080243683B
:10199000934202D14268526842604268D268064B64
:1019A0001A6000BF704700003C00002028000020A3
:1019B0001C000020D8000020040000201CB547486F
:1019C00000684749884201D0012000E0002050B95A
:1019D00000BF502080F31188BFF34F8FBFF36F8F8C
:1019E00000BF00BFFEE73D4800683D49491E8842F0
:1019F00001D0012000E0002050B900BF502080F34A
:101A00001188BFF34F8FBFF36F8F00BF00BFFEE79A
:101A10003449084600780190FF200A4610700846B5
:101A2000007800909DF8000000F0F0009DF8002084
:101A3000904201D1012000E0002050B900BF5020A9
:101A400080F31188BFF34F8FBFF36F8F00BF00BFCC
:101A5000FEE79DF8000000F05000234A10700720B8
:101A6000224A106009E021480068401E1F4A1060A9
:101A70009DF800004006000E00909DF8000000F068
:101A800080008028EFD0194800680002174A1060D3
:101A90001046008800F4E0601060124A019810704F
:101AA0000E482030006840F470000C492031086076
:101AB0000846006840F070400860FFF733FD0020E2
:101AC0000B490860FEF7D0FB0A48006840F0404030
:101AD00008490860FEF7B8FB00201CBD00ED00E0DF
:101AE00071C20F4100E400E06C0000207000002093
:101AF0006800002034EF00E010B500BF502080F3F4
:101B00001188BFF34F8FBFF36F8F00BF00F044FB0E
:101B100018B14FF080500449086000BF002080F3E6
:101B2000118800BF10BD000004ED00E02DE9F8436E
:101B300005460E4690460DB1012000E0002050B948
:101B400000BF502080F31188BFF34F8FBFF36F8F1A
:101B500000BF00BFFEE70EB9002701E005FB06F756
:101B600007F15000FFF730FB044644B104F150097F
:101B700043464A46314628460094FFF731F820464E
:101B8000BDE8F8832DE9FF4782B005460E461F46A3
:101B90004FF0000A2C4654B900BF502080F3118842
:101BA000BFF34F8FBFF36F8F00BF00BFFEE70EB9CB
:101BB000206C08B9012000E0002050B900BF50207F
:101BC00080F31188BFF34F8FBFF36F8F00BF00BF4B
:101BD000FEE700F0CBFA08B9049808B9012000E04C
:101BE000002050B900BF502080F31188BFF34F8F01
:101BF000BFF36F8F00BF00BFFEE700BFFFF700FC21
:101C0000D4F83890B9F1000F3DD0D4F80C803146AB
:101C10002046FEF723FFDFB9A9F10100A063206889
:101C200010B9FFF76FFB6060206908B9012000E080
:101C3000002010BB04F1100000F0B6FBE8B14FF03B
:101C4000805040490860BFF34F8FBFF36F8F14E09F
:101C5000C4F80C80606A08B9012000E0002060B977
:101C600004F1240000F0A0FB38B14FF0805035495A
:101C70000860BFF34F8FBFF36F8FFFF7EBFB0120BF
:101C800006B0BDE8F087049818B9FFF7E3FB002021
:101C9000F6E7BAF1000F04D16846FFF7DFFD4FF019
:101CA000010AFFF7D7FBFFF73BFEFFF7A9FB94F90B
:101CB0004400401C10B9002084F8440094F9450009
:101CC000401C10B9002084F84500FFF7C3FB04A9AD
:101CD000684600F0D5F940BB2046FFF785F8F0B123
:101CE000206830B9FFF78CFB6068FFF75FFDFFF7F6
:101CF000B1FB04F124000499FFF71CFD2046FFF717
:101D000024FA00F09DFB00287FF478AF4FF080505C
:101D10000C490860BFF34F8FBFF36F8F6EE720460B
:101D2000FFF713FA00F08CFB68E72046FFF70DFA87
:101D300000F086FB2046FFF757F80028EED0002081
:101D40009EE7000004ED00E070B505460E462C4607
:101D500054B900BF502080F31188BFF34F8FBFF3F9
:101D60006F8F00BF00BFFEE7FFF74AFBD4E90F12F9
:101D7000206801FB020060600020A0632068A06072
:101D8000E06B401E226C216800FB0210E060FF2027
:101D900084F8440084F845009EB9206908B9012000
:101DA00000E00020A8B904F1100000F0FDFA80B1B5
:101DB0004FF0805009490860BFF34F8FBFF36F8F1A
:101DC00007E004F11000FFF7E5FA04F12400FFF743
:101DD000E1FAFFF73FFB012070BD000004ED00E0D9
:101DE0002DE9FF4383B0064688461D464FF00009A3
:101DF000344654B900BF502080F31188BFF34F8F91
:101E0000BFF36F8F00BF00BFFEE7B8F1000F01D135
:101E1000206C08B9012000E0002050B900BF50201C
:101E200080F31188BFF34F8FBFF36F8F00BF00BFE8
:101E3000FEE7022D02D1E06B012801D1012000E074
:101E4000002050B900BF502080F31188BFF34F8F9E
:101E5000BFF36F8F00BF00BFFEE700F087F908B93E
:101E6000059808B9012000E0002050B900BF5020BB
:101E700080F31188BFF34F8FBFF36F8F00BF00BF98
:101E8000FEE700BFFFF7BCFAA06BE16B884201D30D
:101E9000022D28D12A4641462046FEF7F4FD07468A
:101EA000606A08B9012000E0002068B904F124004C
:101EB00000F07AFA88B14FF0805032490860BFF3E1
:101EC0004F8FBFF36F8F08E03FB14FF080502D4927
:101ED0000860BFF34F8FBFF36F8FFFF7BBFA01208E
:101EE00007B0BDE8F083059818B9FFF7B3FA0020F2
:101EF000F6E7B9F1000F04D101A8FFF7AFFC4FF0EE
:101F00000109FFF7A7FAFFF70BFDFFF779FA94F93C
:101F10004400401C10B9002084F8440094F94500A6
:101F2000401C10B9002084F84500FFF793FA05A97A
:101F300001A800F0A5F8F0B92046FEF762FFA0B1B5
:101F400004F110000599FFF7F5FB2046FFF7FDF8B7
:101F500000F076FA002895D14FF0805009490860CA
:101F6000BFF34F8FBFF36F8F8CE72046FFF7EDF87D
:101F700000F066FA86E72046FFF7E7F800F060FA1F
:101F80000020ADE704ED00E02DE9F05F07468A464A
:101F900090461E463C4654B900BF502080F311883D
:101FA000BFF34F8FBFF36F8F00BF00BFFEE7BAF1E3
:101FB000000F01D1206C08B9012000E0002050B9C9
:101FC00000BF502080F31188BFF34F8FBFF36F8F96
:101FD00000BF00BFFEE7022E02D1E06B012801D155
:101FE000012000E0002050B900BF502080F311888C
:101FF000BFF34F8FBFF36F8F00BF00BFFEE7FFF748
:10200000A1FA00BF5021EFF3118081F31188BFF3D3
:102010004F8FBFF36F8F00BF0546A06BE16B884207
:1020200001D3022E23D194F945B0324651462046C1
:10203000FEF729FD0BF1010088B9606A08B901209B
:1020400000E0002080B904F1240000F0ADF958B19F
:10205000B8F1000F08D00120C8F8000004E00BF12F
:10206000010040B284F845004FF0010901E04FF053
:10207000000900BF85F3118800BF4846BDE8F09F06
:1020800070B504460D4654B900BF502080F3118846
:10209000BFF34F8FBFF36F8F00BF00BFFEE755B98F
:1020A00000BF502080F31188BFF34F8FBFF36F8FB5
:1020B00000BF00BFFEE7FFF7A3F9124803682868D6
:1020C000401C08B9002619E00F49206809688842B9
:1020D00004D06068984201D801260FE06068181AA1
:1020E0002968884209D228686168591A401A28600C
:1020F0002046FFF7B3FB002600E00126FFF7AAF910
:10210000304670BD180000202C0000202DE9FF4F44
:1021100085B0804689461746DDE912ABB800FFF767
:1021200053F8064656B15820FFF74EF804460CB156
:10213000266304E03046FFF7ABF900E000247CB1F1
:102140000020CDE900ABCDE902403A464946404681
:10215000089BFEF75AFD2046FEF7C0FB012501E073
:102160004FF0FF35284609B0BDE8F08F05490968F2
:1021700009B9012005E00449096809B9022000E015
:1021800000207047200000203C0000200149086822
:1021900070470000180000202DE9F0414FF00008C2
:1021A00044480068002877D143480068451C4248ED
:1021B000056015BB41480068006808B9012000E0CF
:1021C000002050B900BF502080F31188BFF34F8F1B
:1021D000BFF36F8F00BF00BFFEE73848076838487D
:1021E0000068364908603648076036480068401C79
:1021F00034490860FEF7FCFE00BF334800688542A2
:102200003CD300BF2D480068006808B9012000E0F9
:10221000002020B14FF0FF302B4908602DE0274807
:102220000068C068C4686668B54202D22648066085
:1022300023E0201DFFF79AF8A06A18B104F11800F6
:10224000FFF794F894F82C10012088401F49096882
:1022500008431E490860E16A01EB81011C4A02EB58
:102260008100211DFFF7C0F81A49E06A0968C96AB0
:102270008842C7D34FF00108C4E700BF1548006883
:10228000C06A00EB8000124951F82000012801D9F2
:102290004FF0010805E0FFE70F480068401C0E49B9
:1022A00008600E48006808B14FF001084046BDE8DC
:1022B000F08100003C0000201800002008000020F1
:1022C0000C0000202C000020340000201C00002006
:1022D000D800002004000020240000202800002056
:1022E00070B505462C460026002D55D02B480068B9
:1022F000844201D1012000E0002050B900BF5020ED
:1023000080F31188BFF34F8FBFF36F8F00BF00BF03
:10231000FEE7E06C50B900BF502080F31188BFF396
:102320004F8FBFF36F8F00BF00BFFEE7E06C401E12
:10233000E064A16CE06A88422ED0E06C60BB201D96
:10234000FFF714F878B9E06A00EB8000144951F8FF
:10235000200040B994F82C100120884011490968E8
:10236000814310480160A06CE062E06AC0F10500A2
:10237000A06194F82C10012088400A49096808439C
:1023800008490860E16A01EB8101054A02EB81001E
:10239000211DFFF729F80126304670BD04000020FA
:1023A000D80000201C00002070B50646F068C46804
:1023B00054B900BF502080F31188BFF34F8FBFF393
:1023C0006F8F00BF00BFFEE704F11800FEF7CEFFDD
:1023D00015480068A8B9201DFEF7C8FF94F82C1016
:1023E0000120884011490968084310490860E16AE2
:1023F00001EB81010E4A02EB8100211DFEF7F4FF83
:1024000004E004F118010B48FEF7EEFF0A49E06A08
:102410000968C96A884204D9012501200749086072
:1024200000E00025284670BD3C0000201C00002074
:10243000D8000020640100200400002028000020B3
:1024400070B5002400263648006850B900BF5020FF
:1024500080F31188BFF34F8FBFF36F8F00BF00BFB2
:10246000FEE7FEF7CDFF2E480068401E2C490860AD
:102470000846006800284FD12A48006800284BD041
:1024800024E02948C068C46804F11800FEF76EFF14
:10249000201DFEF76BFF94F82C1001208840234983
:1024A0000968084321490860E16A01EB8101204A7B
:1024B00002EB8100211DFEF797FF1E49E06A0968C3
:1024C000C96A884202D301201B4908601648006887
:1024D00008B9012000E000200028D2D00CB1FEF79E
:1024E00087FD1648056865B100BFFFF755FE10B1BE
:1024F0000120114908606D1E002DF6D100200F4902
:1025000008600D48006838B1012630070C490860A2
:10251000BFF34F8FBFF36F8FFEF79CFF304670BD48
:102520003C00002014000020640100201C0000205A
:10253000D8000020040000202800002024000020F3
:1025400004ED00E01CB50024FEF724FA0E480068F4
:1025500058B10E48022100234FF48272CDE90010D9
:102560000BA10D48FFF7D2FD044654B900BF50201F
:1025700080F31188BFF34F8FBFF36F8F00BF00BF91
:10258000FEE720461CBD0000480000204C00002053
:10259000546D722053766300311100082DE9FE431B
:1025A00004460D4616461F46DDF828804FF0000908
:1025B00054B900BF502080F31188BFF34F8FBFF391
:1025C0006F8F00BF00BFFEE71448006810B300958E
:1025D00001960294062D15DAFFF7C8FD022808D1EE
:1025E0000023424669460D480068FFF7F9FB814623
:1025F00010E000231A46694608480068FFF7F0FB20
:10260000814607E000233A46694604480068FFF720
:10261000BBFC81464846BDE8FE8300004800002020
:102620004FF04070E1EE100A704700004C260008A1
:102630000000002098000000C4010008E426000803
:102640009800002058340100E0010008000000005C
:10265000000000000000000000000000000000007A
:10266000000000000000000000000000000000006A
:10267000000000000000000000000000000000005A
:10268000000000000000000000000000000000004A
:10269000000000000000000000000000000000003A
:1026A000007A030A00000000000000000102030499
:1026B00006070809AAAAAAAA000000000000000054
:1026C000000000000000000000000000000000000A
:1026D00000000000000000000000000000000000FA
:0426E00000000000F6
:040000050800018965
:00000001FF
